:020000040800F2
:10000000180400209D010008A5010008A7010008B0
:10001000A9010008AB010008AD01000800000000C4
:10002000000000000000000000000000AF01000818
:10003000B101000800000000B3010008B50100088C
:10004000B7010008B7010008B7010008B7010008B0
:10005000B7010008B7010008B7010008B7010008A0
:10006000B7010008B7010008B7010008B701000890
:10007000B7010008B7010008B7010008B701000880
:10008000B7010008B7010008B7010008B701000870
:10009000B7010008B7010008B7010008B701000860
:1000A000B7010008B7010008B7010008B701000850
:1000B000B7010008B7010008B7010008B701000840
:1000C000B7010008B7010008B7010008B701000830
:1000D000B7010008B7010008B7010008B701000820
:1000E000B7010008B7010008B7010008B701000810
:1000F000B7010008B7010008B7010008B701000800
:10010000B7010008B7010008B7010008B7010008EF
:10011000B7010008B7010008B7010008B7010008DF
:10012000B7010008B7010008B7010008B7010008CF
:10013000B7010008B7010008B7010008B7010008BF
:10014000B7010008B7010008B7010008B7010008AF
:10015000B7010008B7010008B7010008B70100089F
:10016000B7010008B7010008B7010008B70100088F
:10017000B7010008B7010008B7010008B70100087F
:10018000B7010008B7010008DFF80CD000F018F83C
:1001900000480047110E0008180400200648804758
:1001A00006480047FEE7FEE7FEE7FEE7FEE7FEE75C
:1001B000FEE7FEE7FEE7FEE7D1020008890100083E
:1001C000064C074D06E0E06840F0010394E80700A4
:1001D00098471034AC42F6D3FFF7DAFF9C0F0008C3
:1001E000BC0F00080CB50020019000903448006856
:1001F00040F480303249086000BF3148006800F4A4
:10020000003000900198401C0190009818B90198A6
:10021000B0F5A04FF1D12A48006800F4003010B1C9
:100220000120009001E0002000900098012846D1B4
:1002300023484030006840F0805021494031086038
:100240002048006840F440401E4908601C480830BF
:1002500000681B49083108600846006840F4004007
:1002600008600846006840F4A05008601648091F5E
:100270000860081F006840F08070091F086000BF18
:100280000F48006800F000700028F9D040F20570B7
:100290000E4908600A480830006820F00300084949
:1002A000083108600846006840F00200086000BF9E
:1002B00003480830006800F00C000828F8D10CBD95
:1002C000003802400070004019544007003C0240D2
:1002D00010B51548006840F47000134908601348D1
:1002E000006840F001001149086000200F49083102
:1002F00008600E4800680E4908400C4908600D4827
:10030000091D0860081F006820F48020091F08608C
:10031000002006490C310860FFF764FF4FF00060D1
:1003200001498039086010BD88ED00E000380240C6
:10033000FFFFF6FE103000240146002000E0401CC4
:100340008842FCDB704700002DE9F0410746DDE9FB
:100350000664089DA1F14100052873D2DFE800F092
:1003600003FDFCFBFA00FE48006840F00100DFF8E6
:10037000F0C3CCF80000FB4800684FEA42084FF099
:10038000010C0CFA08FC20EA0C00DFF8D8C3CCF80A
:100390000000604600684FEA420C0CF1010C4FF07F
:1003A000010808FA0CF820EA0800DFF8B8C3CCF816
:1003B00000006BB9604600684FEA42084FF0000C3D
:1003C0000CFA08FC40EA0C00DFF898C3CCF80000F7
:1003D000012B0CD1E34800684FEA42089C460CFA16
:1003E00008FC40EA0C00DFF87CC3CCF80000022BCC
:1003F0000CD1DC4800684FEA42089C460CFA08FC25
:1004000040EA0C00DFF85CC3CCF80000032B0CD1F1
:10041000D44800684FEA42089C460CFA08FC40EABF
:100420000C00DFF840C3CCF80000012E0BD1CD4802
:10043000D0F804C0012090404CEA000CC948C0F834
:1004400004C00CE0FEE3C74840684FF0000C0CFA13
:1004500002FC40EA0C00DFF80CC3CCF80400ECB955
:10046000C04880684FEA42084FF0000C0CFA08FCC4
:1004700040EA0C00DFF8ECC2CCF808006046806867
:1004800002F1010C4FEA4C084FF0000C0CFA08FC8A
:1004900040EA0C00DFF8CCC2CCF80800012C0CD1EB
:1004A000B04880684FEA4208A4460CFA08FC40EACB
:1004B0000C00DFF8B0C2CCF80800022C0CD1A9481F
:1004C00080684FEA4208A4460CFA08FC40EA0C0097
:1004D000DFF890C2CCF80800032C0CD1A14880684A
:1004E0004FEA4208A4460CFA08FC40EA0C00DFF888
:1004F00074C2CCF808006DB99A48C0684FEA420847
:100500004FF0000C0CFA08FC40EA0C00DFF854C273
:10051000CCF80C00012D0CD19248C0684FEA42087B
:10052000AC460CFA08FC40EA0C00DFF838C2CCF804
:100530000C00022D0CD18B48C0684FEA4208AC4633
:100540000CFA08FC40EA0C00DFF818C2CCF80C00EA
:10055000032D03E03DE325E214E10EE00CD18148D8
:10056000C0684FEA4208AC460CFA08FC40EA0C00AE
:10057000DFF8F0C1CCF80C0013E27948006840F0D5
:100580000200DFF8DCC1CCF80000774800684FEAD1
:1005900042084FF0030C0CFA08FC20EA0C00DFF8CC
:1005A000C8C1CCF800006BB9604600684FEA420849
:1005B0004FF0000C0CFA08FC40EA0C00DFF8A8C170
:1005C000CCF80000012B0CD1674800684FEA4208C4
:1005D0009C460CFA08FC40EA0C00DFF88CC1CCF811
:1005E0000000022B0CD1604800684FEA42089C468C
:1005F0000CFA08FC40EA0C00DFF86CC1CCF80000F3
:10060000032B0CD1584800684FEA42089C460CFA6C
:1006100008FC40EA0C00DFF850C1CCF80000012EC5
:100620000ED15148001D0068B4460CFA02FC40EAA5
:100630000C00DFF834C10CF1040CCCF800000BE026
:100640004948001DD0F800C0002090404CEA000C42
:100650004548001DC0F800C084B943480830006810
:100660004FEA42084FF0000C0CFA08FC40EA0C007C
:10067000DFF8F4C00CF1080CCCF80000012C0FD10D
:100680003948083000684FEA4208A4460CFA08FCD2
:1006900040EA0C00DFF8D0C00CF1080CCCF80000E8
:1006A000022C0FD13048083000684FEA4208A446B7
:1006B0000CFA08FC40EA0C00DFF8ACC00CF1080CA6
:1006C000CCF80000032C0FD12748083000684FEA0F
:1006D0004208A4460CFA08FC40EA0C00DFF888C087
:1006E0000CF1080CCCF8000085B91F480C300068EC
:1006F0004FEA42084FF0000C0CFA08FC40EA0C00EC
:10070000DFF864C00CF10C0CCCF80000012D0FD107
:1007100015480C3000684FEA4208AC460CFA08FC59
:1007200040EA0C00DFF840C00CF10C0CCCF80000E3
:10073000022D0FD10C480C3000684FEA4208AC463D
:100740000CFA08FC40EA0C00DFF81CC00CF10C0CA1
:10075000CCF80000032D14D103480C30006805E0EC
:100760003038024000000240000402404FEA4208D4
:10077000AC460CFA08FC40EA0C00DFF800C4CCF8E8
:10078000000029E3FE48006840F00400DFF8F0C3F1
:10079000CCF80000FB4800684FEA42084FF0010C1B
:1007A0000CFA08FC20EA0C00DFF8D8C3CCF80000F3
:1007B000604600684FEA420C0CF1010C4FF0010852
:1007C00008FA0CF820EA0800DFF8B8C3CCF80000FB
:1007D0006BB9604600684FEA42084FF0000C0CFA13
:1007E00008FC40EA0C00DFF89CC3CCF80000012BA9
:1007F0000CD1E44800684FEA42089C460CFA08FC19
:1008000040EA0C00DFF87CC3CCF80000022B0CD1CE
:10081000DC4800684FEA42089C460CFA08FC40EAB3
:100820000C00DFF860C3CCF80000032B0CD1D548D6
:1008300000684FEA42089C460CFA08FC40EA0C00AB
:10084000DFF840C3CCF80000012E0ED1CD48001DCA
:100850000068B4460CFA02FC40EA0C00DFF824C33E
:100860000CF1040CCCF800000BE0C648001DD0F8D9
:1008700000C0002090404CEA000CC248001DC0F8A7
:1008800000C084B9BF48083000684FEA42084FF002
:10089000000C0CFA08FC40EA0C00DFF8E8C20CF18E
:1008A000080CCCF80000012C0FD1B64808300068C5
:1008B0004FEA4208A4460CFA08FC40EA0C00DFF8B4
:1008C000C4C20CF1080CCCF80000022C0FD1AD48CA
:1008D000083000684FEA4208A4460CFA08FC40EAD7
:1008E0000C00DFF8A0C20CF1080CCCF80000032CBF
:1008F0000FD1A448083000684FEA4208A4460CFA19
:1009000008FC40EA0C00DFF87CC20CF1080CCCF8C3
:10091000000085B99B480C3000684FEA42084FF050
:10092000000C0CFA08FC40EA0C00DFF858C20CF18D
:100930000C0CCCF80000012D0FD192480C3000684F
:100940004FEA4208AC460CFA08FC40EA0C00DFF81B
:1009500034C20CF10C0CCCF80000022D0FD18948E8
:100960000C3000684FEA4208AC460CFA08FC40EA3A
:100970000C00DFF810C20CF10C0CCCF80000032DB9
:100980000FD180480C3000684FEA4208AC460CFAA0
:1009900008FC40EA0C00DFF8ECC10CF10C0CCCF8C0
:1009A000000019E27648006840F00800DFF8D0C186
:1009B000CCF80000744800684FEA42084FF0010C80
:1009C0000CFA08FC20EA0C00DFF8BCC1CCF80000EF
:1009D000604600684FEA420C0CF1010C4FF0010830
:1009E00008FA0CF820EA0800DFF89CC1CCF80000F7
:1009F0006BB9604600684FEA42084FF0000C0CFAF1
:100A000008FC40EA0C00DFF880C1CCF80000012BA4
:100A10000CD15D4800684FEA42089C460CFA08FC7D
:100A200040EA0C00DFF860C1CCF80000022B0CD1CA
:100A3000554800684FEA42089C460CFA08FC40EA18
:100A40000C00DFF844C1CCF80000032B0CD14E4859
:100A500000684FEA42089C460CFA08FC40EA0C0089
:100A6000DFF824C1CCF80000012E0CD14648001D4F
:100A7000D0F800C0012090404CEA000C4248001D14
:100A8000C0F800C00BE04048001DD0F800C00020B6
:100A900090404CEA000C3C48001DC0F800C084B9EE
:100AA0003948083000684FEA42084FF0000C0CFA51
:100AB00008FC40EA0C00DFF8D0C00CF1080CCCF8C0
:100AC0000000012C0FD13048083000684FEA42087E
:100AD000A4460CFA08FC40EA0C00DFF8ACC00CF1AC
:100AE000080CCCF80000022C0FD127480830006811
:100AF0004FEA4208A4460CFA08FC40EA0C00DFF872
:100B000088C00CF1080CCCF80000032C0FD11E4853
:100B1000083000684FEA4208A4460CFA08FC40EA94
:100B20000C00DFF864C00CF1080CCCF8000085B9AB
:100B300015480C3000684FEA42084FF0000C0CFAE0
:100B400008FC40EA0C00DFF840C00CF10C0CCCF8BB
:100B50000000012D0FD10C480C3000684FEA42080C
:100B6000AC460CFA08FC40EA0C00DFF81CC00CF1A3
:100B70000C0CCCF80000022D18D107E00C04024048
:100B80003038024000080240000C024094480C300B
:100B900000684FEA4208AC460CFA08FC40EA0C0038
:100BA000DFF83CC20CF10C0CCCF80000032D0FD187
:100BB0008B480C3000684FEA4208AC460CFA08FC3F
:100BC00040EA0C00DFF818C20CF10C0CCCF8000065
:100BD00002E18448006840F01000DFF808C2CCF859
:100BE0000000814800684FEA42084FF0010C0CFAFF
:100BF00008FC20EA0C00DFF8F0C1CCF800006046E9
:100C000000684FEA420C0CF1010C4FF0010808FAA1
:100C10000CF820EA0800DFF8D0C1CCF800006BB96E
:100C2000604600684FEA42084FF0000C0CFA08FCDE
:100C300040EA0C00DFF8B0C1CCF80000012B0ED167
:100C4000694800E0BBE000684FEA42089C460CFAA5
:100C500008FC40EA0C00DFF890C1CCF80000022B41
:100C60000CD1614800684FEA42089C460CFA08FC27
:100C700040EA0C00DFF870C1CCF80000032B0CD167
:100C8000594800684FEA42089C460CFA08FC40EAC2
:100C90000C00DFF854C1CCF80000012E0AD15248F4
:100CA000D0F804C0012090404CEA000C4E48C0F837
:100CB00004C00BE04C4840684FF0000C0CFA02FCFA
:100CC00040EA0C00DFF820C1CCF804006CB94648BB
:100CD00080684FEA42084FF0000C0CFA08FC40EA2A
:100CE0000C00DFF804C1CCF80800012C0CD13E4800
:100CF00080684FEA4208A4460CFA08FC40EA0C005F
:100D0000DFF8E4C0CCF80800022C0CD1364880682B
:100D10004FEA4208A4460CFA08FC40EA0C00DFF84F
:100D2000C8C0CCF80800032C0CD12F4880684FEACB
:100D30004208A4460CFA08FC40EA0C00DFF8A8C000
:100D4000CCF808006DB92848C0684FEA42084FF057
:100D5000000C0CFA08FC40EA0C00DFF88CC0CCF860
:100D60000C00012D0CD12048C0684FEA4208AC4667
:100D70000CFA08FC40EA0C00DFF86CC0CCF80C0060
:100D8000022D0CD11848C0684FEA4208AC460CFA54
:100D900008FC40EA0C00DFF850C0CCF80C00032D32
:100DA0000CD11148C0684FEA4208AC460CFA08FC66
:100DB00040EA0C00DFF830C0CCF80C000CE04FF03B
:100DC0002840DFF828C0CCF800004FF42070DFF88E
:100DD00010C0CCF8000000BF00BFBDE8F0810000EB
:100DE000000C024030380240001002400000024077
:100DF00002E008C8121F08C1002AFAD170477047E4
:100E0000002001E001C1121F002AFBD17047000041
:100E10000EB5002000900190034602464121029049
:100E20005948FFF791FA03200021009101230C2279
:100E3000CDE9011045215448FFF786FA00200090C3
:100E4000019001230D22442102904F48FFF77CFAC4
:100E500000200090019001230E22442102904A4874
:100E6000FFF772FA00200090019001230F22442125
:100E700002904548FFF768FA85E044480069444914
:100E800008600846007800F0010008600846006825
:100E900001283CD13F48006800203E4908603E4898
:100EA000FFF74AFA4FF480503A4908603A48FFF792
:100EB00043FA384800680020364908603648FFF792
:100EC0003BFA4FF40050334908603348FFF734FAD7
:100ED0003048006800202F4908602F48FFF72CFA9F
:100EE0004FF480402B4908602B48FFF725FA29482A
:100EF00000680020274908602748FFF71DFA4FF4D3
:100F00000040244908602448FFF716FA3BE02148D6
:100F1000006800201F4908601F48FFF70DFA4FF4D2
:100F200070401C4908601C48FFF706FA1948006821
:100F30000020184908601848FFF7FEF94FF4604098
:100F4000144908601448FFF7F7F9124800680020B8
:100F5000104908601048FFF7EFF94FF450400D4971
:100F600008600D48FFF7E8F90A48006800200949C1
:100F700008600948FFF7E0F94FF440400549086070
:100F80000548FFF7D9F978E7040000200000024087
:100F900000000020140C0240AAAAAA00BC0F0008FE
:100FA0000000002004000000F00D0008C00F000841
:100FB0000400002014040000000E000800000000DF
:040000050800019D51
:00000001FF
